:100000000C9446000C9465000C9465000C946500FB
:100010000C9465000C9465000C9465000C946500CC
:100020000C9465000C9465000C9465000C946500BC
:100030000C9465000C9490020C9465000C9465007F
:100040000C9465000C9465000C9465000C9465009C
:100050000C9465000C9465000C9465000C9465008C
:100060000C9465000C9465000C9465000C9465007C
:100070000C9465000C9465000C9465000C9465006C
:100080000C9465000C9465000C94650011241FBE4F
:10009000CFEFD0E4DEBFCDBF11E0A0E0B1E0E2E4FD
:1000A000FCE000E00BBF02C007900D92A833B1073F
:1000B000D9F721E0A8E3B1E001C01D92AE34B20748
:1000C000E1F70E9487040C941F060C940000CF9364
:1000D000DF93CDB7DEB781E00E948E000000DF9194
:1000E000CF910895CF93DF93CDB7DEB784E690E04C
:1000F0000E94320188E30E948E0086E00E948E00FA
:100100008FE00E948E0081E00E948E008AE090E0E5
:100110000E9432010000DF91CF910895CF93DF93C9
:100120001F92CDB7DEB789838BE290E02BE230E0FF
:10013000F90120812F7BFC01208388E290E0298156
:10014000FC0120838BE290E02BE230E0F90120817A
:100150002068FC01208300008BE290E02BE230E07D
:10016000F90120812F77FC01208382E090E00E943A
:10017000320100000F90DF91CF910895CF93DF936C
:100180001F92CDB7DEB789838BE290E02BE230E09F
:10019000F90120812064FC01208388E290E029811C
:1001A000FC0120838BE290E02BE230E0F90120811A
:1001B0002068FC01208300008BE290E02BE230E01D
:1001C000F90120812F77FC01208381E090E00E94DB
:1001D000320100000F90DF91CF910895CF93DF930C
:1001E00000D000D0CDB7DEB78A837C836B830E94BA
:1001F00067008A81898311C0898191E0980F998372
:100200000E941B018B819C819C012F5F3F4F3C838F
:100210002B83FC0180810E94BE008B819C81FC01AC
:100220008081882349F700000F900F900F900F9066
:10023000DF91CF910895CF93DF931F92CDB7DEB7B3
:1002400089838981813128F4898181580E948E00B7
:1002500004C0898181550E948E0000000F90DF91BB
:10026000CF910895CF93DF9300D000D000D0CDB7C9
:10027000DEB79E838D831A82198213C01C821B8273
:1002800006C000008B819C8101969C838B838B81AF
:100290009C8187309340ACF389819A8101969A833F
:1002A000898329813A818D819E812817390734F30A
:1002B000000026960FB6F894DEBF0FBECDBFDF91CB
:1002C000CF910895CF93DF93CDB7DEB781EC90E067
:1002D00021EC30E0F90120812861FC01208382ECCF
:1002E00090E022EC30E0F90120812660FC012083BF
:1002F00084EC90E023E3FC01208385EC90E0FC019A
:1003000010820000DF91CF910895CF93DF93CDB796
:10031000DEB780EC90E0FC0180818072DF91CF91AC
:100320000895CF93DF93CDB7DEB780EC90E0FC016A
:1003300080818074DF91CF910895CF93DF93CDB703
:10034000DEB780EC90E0FC0180818078DF91CF9176
:100350000895CF93DF93CDB7DEB706C086EC90E06B
:10036000FC01808180933D0180EC90E0FC01808164
:100370008823A4F30000DF91CF910895CF93DF93FA
:100380001F92CDB7DEB78983000080EC90E0FC01BE
:100390008081882F90E080729927892BB1F386ECB9
:1003A00090E02981FC01208300000F90DF91CF9124
:1003B0000895CF93DF93CDB7DEB7000080EC90E0D7
:1003C000FC0180818823D4F786EC90E0FC018081D9
:1003D000DF91CF910895CF93DF9300D01F92CDB7D7
:1003E000DEB789837B836A8389818A3031F48A818D
:1003F0009B81BC018DE00E94EB0180EC90E0FC0150
:100400008081882F90E080729927892BB1F386EC48
:1004100090E02981FC01208380E090E00F900F9014
:100420000F90DF91CF910895CF93DF9300D000D04C
:10043000CDB7DEB769837A838B839C8389819A8168
:10044000AB81BC8180930E0190930F01A0931001AA
:10045000B093110180910E0190910F01A0911001B4
:10046000B09111018093390190933A01A0933B011F
:10047000B0933C0100000F900F900F900F90DF9110
:10048000CF910895CF93DF93CDB7DEB781E890E0A9
:100490002BE0FC01208388E890E02DE730E0FC01B0
:1004A000318320838FE690E022E0FC01208384E802
:1004B00090E0FC011182108280910E0190910F0159
:1004C000A0911001B09111018093390190933A01EC
:1004D000A0933B01B0933C018FE590E02FE530E025
:1004E000F90120812068FC0120830000DF91CF9179
:1004F0000895CF93DF93CDB7DEB781E890E0FC019C
:1005000010820000DF91CF910895CF93DF93CDB794
:10051000DEB781E0809338010000DF91CF9108952C
:100520001F920F9200905F000F92112400905B00C9
:100530000F922F933F934F935F936F937F938F937C
:100540009F93AF93BF93EF93FF93CF93DF93CDB779
:10055000DEB78091390190913A01A0913B01B091B1
:100560003C010197A109B1098093390190933A01A7
:10057000A0933B01B0933C018091390190913A01E5
:10058000A0913B01B0913C01892B8A2B8B2B91F4DC
:100590000E94850280910E0190910F01A09110019F
:1005A000B09111018093390190933A01A0933B01DE
:1005B000B0933C010000DF91CF91FF91EF91BF918B
:1005C000AF919F918F917F916F915F914F913F91EB
:1005D0002F910F9000925B000F9000925F000F90A0
:1005E0001F901895CF93DF93CDB7DEB72C970FB63A
:1005F000F894DEBF0FBECDBF6D837E838F83988757
:1006000029873A874B875C878D819E81AF81B8852A
:1006100029853A854B855C85BC01CD010E94FD058D
:10062000DC01CB0189839A83AB83BC8389819A8166
:10063000AB81BC81892B8A2B8B2B29F489859A85E8
:10064000AB85BC8511C089859A85AB85BC858D83BA
:100650009E83AF83B88789819A81AB81BC8189876A
:100660009A87AB87BC87D0CFBC01CD012C960FB643
:10067000F894DEBF0FBECDBFDF91CF910895CF9329
:10068000DF9300D0CDB7DEB79A83898389819A81C1
:100690008230910509F456C0833091052CF40097FF
:1006A00059F0019771F0F0C08330910509F480C0D2
:1006B000049709F4B3C0E8C081E090E09A8389838D
:1006C000E3C080913E01803381F482E290E021E03A
:1006D000FC01208362E171E081E090E00E94EE0085
:1006E00082E090E09A838983CFC080913E0181337C
:1006F00081F482E290E022E0FC01208363E271E079
:1007000081E090E00E94EE0083E090E09A8389838C
:10071000BBC080913E01823381F482E290E023E00D
:10072000FC0120836CE271E081E090E00E94EE0029
:1007300084E090E09A838983A7C082E290E0FC0184
:100740001082A2C080913E01803329F482E090E0C3
:100750009A83898399C080913E01813381F482E23A
:1007600090E022E0FC01208363E271E081E090E010
:100770000E94EE0083E090E09A83898385C0809197
:100780003E01823381F482E290E023E0FC01208389
:100790006CE271E081E090E00E94EE0084E090E085
:1007A0009A83898371C082E290E0FC0110826CC060
:1007B00080913E01803381F482E290E021E0FC01EF
:1007C000208362E171E081E090E00E94EE0082E02F
:1007D00090E09A83898358C080913E01813329F447
:1007E00083E090E09A8389834FC080913E018233F9
:1007F00081F482E290E023E0FC0120836CE271E06E
:1008000081E090E00E94EE0084E090E09A8389838A
:100810003BC082E290E0FC01108236C080913E0134
:10082000803381F482E290E021E0FC01208362E1E8
:1008300071E081E090E00E94EE0082E090E09A8317
:10084000898321C080913E01813381F482E290E06E
:1008500022E0FC01208363E271E081E090E00E94ED
:10086000EE0083E090E09A8389830DC080913E0181
:10087000823329F484E090E09A83898304C082E281
:1008800090E0FC011082000089819A8182309105FC
:10089000A9F0833091051CF4019739F031C0833001
:1008A0009105A9F00497E1F02BC00E949D018823D7
:1008B00001F10E94D90180933E011BC00E949D015D
:1008C0008823C9F00E94D90180933E0114C00E9480
:1008D0009D01882391F00E94D90180933E010DC0B3
:1008E0000E949D01882359F00E94D90180933E0106
:1008F00006C0000005C0000003C0000001C00000E9
:1009000089819A810F900F90DF91CF9108950F9375
:100910001F93CF93DF93CDB7DEB728970FB6F89428
:10092000DEBF0FBECDBF8AE290E02EEFFC01208338
:100930008BE290E021E0FC01208387E290E02FEF42
:10094000FC01208388E290E0FC01108281E290E0CB
:100950002FEFFC01208382E290E0FC01108280E016
:1009600090E00E94620161E070E080E090E00E940F
:1009700014020E9442020E94720062E171E081E072
:1009800090E00E94EE008FE391E098878F8381E0F2
:1009900090E09E838D8310923F0181E090E0A0E083
:1009A000B0E08093400190934101A0934201B09345
:1009B00043018091400190914101A0914201B09189
:1009C00043018093440190934501A0934601B09365
:1009D00047018FE393E090934901809348018F8111
:1009E0009885FC0181819281A381B48189839A8356
:1009F000AB83BC8381E080934A0127C080914A0188
:100A0000882F90E0880F991F9E012F5F3F4F820F24
:100A1000931F0696FC0180819181FC012181328126
:100A20004381548189819A81AB81BC81BC01CD0114
:100A30000E94F202DC01CB0189839A83AB83BC83E1
:100A400080914A018F5F80934A0180914A01282F4B
:100A500030E08D819E812817390780F289819A8143
:100A6000AB81BC81BC01CD010E9414020E944202F4
:100A700010924B01B0C080914B01882F90E0880FFD
:100A8000991F9E012F5F3F4F820F931F0696FC0117
:100A900080819181FC01258136814781508580913B
:100AA0004B01882F90E0880F991FBE016F5F7F4F29
:100AB000860F971F0696FC0180819181FC01818140
:100AC0009281A381B481281739074A075B0709F08F
:100AD0004DC080914B01882F90E0880F991F9E0197
:100AE0002F5F3F4F820F931F0696FC0100811181FB
:100AF00080914B01882F90E0880F991F9E012F5FF6
:100B00003F4F820F931F0696FC0180819181FC016B
:100B10002185328580914B01882F90E0880F991FA5
:100B2000AE014F5F5F4F840F951F0696FC018081D9
:100B30009181FC018081082E000C990BF901099527
:100B4000F801808380914B01882F90E0880F991FD6
:100B50009E012F5F3F4F820F931F0696FC018081FD
:100B60009181FC01158216821782108680914B01BB
:100B7000882F90E0880F991F9E012F5F3F4F820FB3
:100B8000931F0696FC016081718180914B01882F33
:100B900090E0880F991F9E012F5F3F4F820F931F98
:100BA0000696FC0180819181FC0125813681478177
:100BB000508589819A81AB81BC81820F931FA41FCC
:100BC000B51FFB0185839683A783B08780914B0176
:100BD0008F5F80934B0180914B01282F30E08D81F6
:100BE0009E812817390708F446CF0000809138010C
:100BF0008823E1F3109238013BCFA1E21A2EAA1B01
:100C0000BB1BFD010DC0AA1FBB1FEE1FFF1FA217BC
:100C1000B307E407F50720F0A21BB30BE40BF50BB9
:100C2000661F771F881F991F1A9469F76095709542
:100C3000809590959B01AC01BD01CF010895F8947A
:020C4000FFCFE4
:100C42000000000200000000EB01000000000100B3
:100C5200000047616D6520496E2050726F677265B2
:100C6200737300596F752057696E210047616D6576
:080C7200204F7665722100009D
:00000001FF
