:100000000C9446000C9465000C9465000C946500FB
:100010000C9465000C9465000C9465000C946500CC
:100020000C9465000C9465000C9465000C946500BC
:100030000C9465000C9413030C9465000C946500FB
:100040000C9465000C9465000C9465000C9465009C
:100050000C9465000C9465000C9465000C9465008C
:100060000C9465000C9465000C9465000C9465007C
:100070000C9465000C9465000C9465000C9465006C
:100080000C9465000C9465000C94650011241FBE4F
:10009000CFEFD0E4DEBFCDBF11E0A0E0B1E0EAE5F4
:1000A000FBE000E00BBF02C007900D92A432B10745
:1000B000D9F721E0A4E2B1E001C01D92AA33B20752
:1000C000E1F70E9414040C94AB050C940000CF934C
:1000D000DF93CDB7DEB781E00E948E000000DF9194
:1000E000CF910895CF93DF93CDB7DEB784E690E04C
:1000F0000E94320188E30E948E0086E00E948E00FA
:100100008FE00E948E0081E00E948E008AE090E0E5
:100110000E9432010000DF91CF910895CF93DF93C9
:100120001F92CDB7DEB789838BE290E02BE230E0FF
:10013000F90120812F7BFC01208388E290E0298156
:10014000FC0120838BE290E02BE230E0F90120817A
:100150002068FC01208300008BE290E02BE230E07D
:10016000F90120812F77FC01208382E090E00E943A
:10017000320100000F90DF91CF910895CF93DF936C
:100180001F92CDB7DEB789838BE290E02BE230E09F
:10019000F90120812064FC01208388E290E029811C
:1001A000FC0120838BE290E02BE230E0F90120811A
:1001B0002068FC01208300008BE290E02BE230E01D
:1001C000F90120812F77FC01208381E090E00E94DB
:1001D000320100000F90DF91CF910895CF93DF930C
:1001E00000D000D0CDB7DEB78A837C836B830E94BA
:1001F00067008A81898311C0898191E0980F998372
:100200000E941B018B819C819C012F5F3F4F3C838F
:100210002B83FC0180810E94BE008B819C81FC01AC
:100220008081882349F700000F900F900F900F9066
:10023000DF91CF910895CF93DF931F92CDB7DEB7B3
:1002400089838981813128F4898181580E948E00B7
:1002500004C0898181550E948E0000000F90DF91BB
:10026000CF910895CF93DF9300D000D000D0CDB7C9
:10027000DEB79E838D831A82198213C01C821B8273
:1002800006C000008B819C8101969C838B838B81AF
:100290009C8187309340ACF389819A8101969A833F
:1002A000898329813A818D819E812817390734F30A
:1002B000000026960FB6F894DEBF0FBECDBFDF91CB
:1002C000CF910895CF93DF931F92CDB7DEB7898387
:1002D00089818130E9F081EC90E021EC30E0F90196
:1002E00020812861FC01208382EC90E022EC30E048
:1002F000F90120812660FC01208384EC90E02FE34B
:10030000FC01208385EC90E02CE9FC0120831CC0DB
:1003100089EC90E029EC30E0F90120812861FC01B2
:1003200020838AEC90E02AEC30E0F90120812660FD
:10033000FC0120838CEC90E02FE3FC0120838DEC0A
:1003400090E02CE9FC01208300000F90DF91CF9119
:100350000895CF93DF931F92CDB7DEB7898389814C
:10036000813031F080EC90E0FC018081807205C02A
:1003700088EC90E0FC01808180720F90DF91CF913A
:100380000895CF93DF931F92CDB7DEB7898389811C
:10039000813031F080EC90E0FC018081807405C0F8
:1003A00088EC90E0FC01808180740F90DF91CF9108
:1003B0000895CF93DF931F92CDB7DEB789838981EC
:1003C000813031F080EC90E0FC018081807805C0C4
:1003D00088EC90E0FC01808180780F90DF91CF91D4
:1003E0000895CF93DF931F92CDB7DEB789838981BC
:1003F0008130A1F006C086EC90E0FC018081809302
:10040000290180EC90E0FC0180818823A4F30CC0DA
:100410008EEC90E0FC0180818093290188EC90E0D3
:10042000FC0180818823A4F300000F90DF91CF911D
:100430000895CF93DF9300D0CDB7DEB789836A8369
:100440008A81813089F0000080EC90E0FC0180819D
:10045000882F90E080729927892BB1F386EC90E089
:100460002981FC01208310C0000088EC90E0FC0191
:100470008081882F90E080729927892BB1F38EECD0
:1004800090E02981FC01208300000F900F90DF9104
:10049000CF910895CF93DF931F92CDB7DEB78983B5
:1004A0008981813061F0000080EC90E0FC01808166
:1004B0008823D4F786EC90E0FC0180810BC000001B
:1004C00088EC90E0FC0180818823D4F78EEC90E0EA
:1004D000FC0180810F90DF91CF910895CF93DF933E
:1004E00000D01F92CDB7DEB789837B836A83898171
:1004F0008A3031F48A819B81BC018DE00E946E02BA
:1005000080EC90E0FC018081882F90E08072992738
:10051000892BB1F386EC90E02981FC01208380E0F7
:1005200090E00F900F900F90DF91CF910895CF93AF
:10053000DF9300D000D0CDB7DEB769837A838B8399
:100540009C8389819A81AB81BC8180930E019093B9
:100550000F01A0931001B093110180910E019091B1
:100560000F01A0911001B09111018093250190938A
:100570002601A0932701B093280100000F900F904F
:100580000F900F90DF91CF910895CF93DF93CDB768
:10059000DEB781E890E02BE0FC01208388E890E062
:1005A0002DE730E0FC01318320838FE690E022E0EC
:1005B000FC01208384E890E0FC011182108280918C
:1005C0000E0190910F01A0911001B0911101809343
:1005D000250190932601A0932701B09328018FE570
:1005E00090E02FE530E0F90120812068FC012083B4
:1005F0000000DF91CF910895CF93DF93CDB7DEB7A1
:1006000081E890E0FC0110820000DF91CF91089515
:10061000CF93DF93CDB7DEB781E080932401000054
:10062000DF91CF9108951F920F9200905F000F927B
:10063000112400905B000F922F933F934F935F9391
:100640006F937F938F939F93AF93BF93EF93FF939A
:10065000CF93DF93CDB7DEB780912501909126012E
:10066000A0912701B09128010197A109B1098093B8
:10067000250190932601A0932701B0932801809132
:10068000250190912601A0912701B0912801892B85
:100690008A2B8B2B91F40E94080380910E0190917C
:1006A0000F01A0911001B091110180932501909349
:1006B0002601A0932701B09328010000DF91CF917C
:1006C000FF91EF91BF91AF919F918F917F916F912A
:1006D0005F914F913F912F910F9000925B000F908F
:1006E00000925F000F901F901895CF93DF93CDB7C6
:1006F000DEB72C970FB6F894DEBF0FBECDBF6D836B
:100700007E838F83988729873A874B875C878D8183
:100710009E81AF81B88529853A854B855C85BC0172
:10072000CD010E948905DC01CB0189839A83AB83CB
:10073000BC8389819A81AB81BC81892B8A2B8B2BCD
:1007400029F489859A85AB85BC8511C089859A85F0
:10075000AB85BC858D839E83AF83B88789819A8161
:10076000AB81BC8189879A87AB87BC87D0CFBC011E
:10077000CD012C960FB6F894DEBF0FBECDBFDF9132
:10078000CF910895CF93DF9300D0CDB7DEB79A8392
:10079000898389819A81009719F0019731F037C0D8
:1007A00081E090E09A83898332C080E00E94D90181
:1007B000882361F180E00E944A0280932A0181E04F
:1007C00090E09A83898380912A01803331F482E218
:1007D00090E021E0FC01208319C080912A0181333F
:1007E00031F482E290E022E0FC0120830FC080918E
:1007F0002A01823331F482E290E024E0FC0120837C
:1008000005C082E290E028E0FC012083000089819D
:100810009A81019709F001C0000089819A810F90A7
:100820000F90DF91CF9108950F931F93CF93DF9394
:10083000CDB7DEB728970FB6F894DEBF0FBECDBF99
:100840008AE290E02EEFFC0120838BE290E021E031
:10085000FC01208387E290E02FEFFC01208388E2F7
:1008600090E0FC01108281E290E02FEFFC012083F8
:1008700082E290E0FC01108280E00E94620161E06F
:1008800070E080E090E00E9497020E94C5020E9402
:10089000720062E171E081E090E00E94EE008BE284
:1008A00091E098878F8381E090E09E838D83109202
:1008B0002B0181E090E0A0E0B0E080932C019093C8
:1008C0002D01A0932E01B0932F0180912C019091C6
:1008D0002D01A0912E01B0912F01809330019093B2
:1008E0003101A0933201B093330182EC93E09093F5
:1008F0003501809334018F819885FC01818192813B
:10090000A381B48189839A83AB83BC8381E0809384
:10091000360127C080913601882F90E0880F991FFB
:100920009E012F5F3F4F820F931F0696FC0180812F
:100930009181FC01218132814381548189819A8195
:10094000AB81BC81BC01CD010E947503DC01CB01F0
:1009500089839A83AB83BC83809136018F5F8093B8
:10096000360180913601282F30E08D819E81281735
:10097000390780F289819A81AB81BC81BC01CD01AC
:100980000E9497020E94C50210923701B0C0809168
:100990003701882F90E0880F991F9E012F5F3F4FEE
:1009A000820F931F0696FC0180819181FC012581B5
:1009B00036814781508580913701882F90E0880FDC
:1009C000991FBE016F5F7F4F860F971F0696FC0130
:1009D00080819181FC0181819281A381B48128175A
:1009E00039074A075B0709F04DC080913701882F0E
:1009F00090E0880F991F9E012F5F3F4F820F931F3A
:100A00000696FC010081118180913701882F90E0CA
:100A1000880F991F9E012F5F3F4F820F931F0696ED
:100A2000FC0180819181FC01218532858091370113
:100A3000882F90E0880F991FAE014F5F5F4F840FA2
:100A4000951F0696FC0180819181FC018081082E12
:100A5000000C990BF9010995F80180838091370109
:100A6000882F90E0880F991F9E012F5F3F4F820FC4
:100A7000931F0696FC0180819181FC0115821682EC
:100A80001782108680913701882F90E0880F991F78
:100A90009E012F5F3F4F820F931F0696FC016081DE
:100AA000718180913701882F90E0880F991F9E01F6
:100AB0002F5F3F4F820F931F0696FC01808191812B
:100AC000FC01258136814781508589819A81AB81DE
:100AD000BC81820F931FA41FB51FFB0185839683E2
:100AE000A783B087809137018F5F80933701809112
:100AF0003701282F30E08D819E812817390708F4AF
:100B000046CF0000809124018823E1F31092240154
:100B10003BCFA1E21A2EAA1BBB1BFD010DC0AA1FD1
:100B2000BB1FEE1FFF1FA217B307E407F50720F056
:100B3000A21BB30BE40BF50B661F771F881F991FD1
:100B40001A9469F760957095809590959B01AC011A
:0A0B5000BD01CF010895F894FFCF16
:100B5A0000000002000000006E0200000000010018
:100B6A00000047616D6520496E2050726F6772659B
:040B7A007373000091
:00000001FF
