:100000000C9446000C9465000C9465000C946500FB
:100010000C9465000C9465000C9465000C946500CC
:100020000C9465000C9465000C9465000C946500BC
:100030000C9465000C9407020C9465000C94650008
:100040000C9465000C9465000C9465000C9465009C
:100050000C9465000C9465000C9465000C9465008C
:100060000C9465000C9465000C9465000C9465007C
:100070000C9465000C9465000C9465000C9465006C
:100080000C9465000C9465000C94650011241FBE4F
:10009000CFEFD0E4DEBFCDBF11E0A0E0B1E0EEEBEA
:1000A000FDE000E00BBF02C007900D92A234B10743
:1000B000D9F721E0A2E4B1E001C01D92A337B20755
:1000C000E1F70E943A050C94DD060C940000CF93F2
:1000D000DF93CDB7DEB781E00E948E000000DF9194
:1000E000CF910895CF93DF93CDB7DEB784E690E04C
:1000F0000E94320188E30E948E0086E00E948E00FA
:100100008FE00E948E0081E00E948E008AE090E0E5
:100110000E9432010000DF91CF910895CF93DF93C9
:100120001F92CDB7DEB789838BE290E02BE230E0FF
:10013000F90120812F7BFC01208388E290E0298156
:10014000FC0120838BE290E02BE230E0F90120817A
:100150002068FC01208300008BE290E02BE230E07D
:10016000F90120812F77FC01208382E090E00E943A
:10017000320100000F90DF91CF910895CF93DF936C
:100180001F92CDB7DEB789838BE290E02BE230E09F
:10019000F90120812064FC01208388E290E029811C
:1001A000FC0120838BE290E02BE230E0F90120811A
:1001B0002068FC01208300008BE290E02BE230E01D
:1001C000F90120812F77FC01208381E090E00E94DB
:1001D000320100000F90DF91CF910895CF93DF930C
:1001E00000D000D0CDB7DEB78A837C836B830E94BA
:1001F00067008A81898311C0898191E0980F998372
:100200000E941B018B819C819C012F5F3F4F3C838F
:100210002B83FC0180810E94BE008B819C81FC01AC
:100220008081882349F700000F900F900F900F9066
:10023000DF91CF910895CF93DF931F92CDB7DEB7B3
:1002400089838981813128F4898181580E948E00B7
:1002500004C0898181550E948E0000000F90DF91BB
:10026000CF910895CF93DF9300D000D000D0CDB7C9
:10027000DEB79E838D831A82198213C01C821B8273
:1002800006C000008B819C8101969C838B838B81AF
:100290009C8187309340ACF389819A8101969A833F
:1002A000898329813A818D819E812817390734F30A
:1002B000000026960FB6F894DEBF0FBECDBFDF91CB
:1002C000CF910895CF93DF9300D01F92CDB7DEB7C3
:1002D00089837B836A8389818A3031F48A819B8117
:1002E000BC018DE00E94620180EC90E0FC01808105
:1002F000882F90E080729927892BB1F386EC90E0EB
:100300002981FC01208380E090E00F900F900F90F6
:10031000DF91CF910895CF93DF9300D000D0CDB778
:10032000DEB769837A838B839C8389819A81AB81D1
:10033000BC8180930E0190930F01A0931001B093A4
:10034000110180910E0190910F01A0911001B091C7
:1003500011018093430190934401A0934501B09310
:10036000460100000F900F900F900F90DF91CF91FA
:100370000895CF93DF93CDB7DEB781E890E02BE00F
:10038000FC01208388E890E02DE730E0FC01318318
:1003900020838FE690E022E0FC01208384E890E057
:1003A000FC011182108280910E0190910F01A091A9
:1003B0001001B09111018093430190934401A093E7
:1003C0004501B09346018FE590E02FE530E0F9015B
:1003D00020812068FC0120830000DF91CF910895E7
:1003E000CF93DF93CDB7DEB781E890E0FC011082B8
:1003F0000000DF91CF910895CF93DF93CDB7DEB7A3
:1004000081E0809342010000DF91CF9108951F9217
:100410000F9200905F000F92112400905B000F92EA
:100420002F933F934F935F936F937F938F939F93FC
:10043000AF93BF93EF93FF93CF93DF93CDB7DEB727
:100440008091430190914401A0914501B0914601F2
:100450000197A109B1098093430190934401A093AE
:100460004501B09346018091430190914401A091D0
:100470004501B0914601892B8A2B8B2B91F40E9468
:10048000FC0180910E0190910F01A0911001B0919B
:1004900011018093430190934401A0934501B093CF
:1004A00046010000DF91CF91FF91EF91BF91AF9195
:1004B0009F918F917F916F915F914F913F912F917C
:1004C0000F9000925B000F9000925F000F901F90C2
:1004D0001895CF93DF93CDB7DEB72C970FB6F8946E
:1004E000DEBF0FBECDBF6D837E838F839887298744
:1004F0003A874B875C878D819E81AF81B88529853E
:100500003A854B855C85BC01CD010E94BB06DC01B0
:10051000CB0189839A83AB83BC8389819A81AB8128
:10052000BC81892B8A2B8B2B29F489859A85AB85F5
:10053000BC8511C089859A85AB85BC858D839E83DA
:10054000AF83B88789819A81AB81BC8189879A877B
:10055000AB87BC87D0CFBC01CD012C960FB6F894E9
:10056000DEBF0FBECDBFDF91CF910895CF93DF9354
:1005700000D01F92CDB7DEB78B831A82198227C0B5
:1005800088E290E028E0FC01208388E290E028E205
:1005900030E0F9012081422F2B81222F30E00980A9
:1005A00002C0359527950A94E2F72170242BFC01AF
:1005B000208388E290E028E230E0F9012081246085
:1005C000FC01208389819A8101969A83898389819C
:1005D0009A810897ACF288E290E028E230E0F901D5
:1005E00020812260FC01208388E290E0FC011082DF
:1005F00000000F900F900F90DF91CF910895CF934F
:10060000DF9300D01F92CDB7DEB78B831A82198299
:1006100027C082E290E028E0FC01208382E290E0A3
:1006200022E230E0F9012081422F2B81222F30E09D
:10063000098002C0359527950A94E2F72170242B92
:10064000FC01208382E290E022E230E0F901208187
:100650002460FC01208389819A8101969A83898391
:1006600089819A810897ACF282E290E022E230E040
:10067000F90120812260FC01208382E290E0FC01EC
:10068000108200000F900F900F90DF91CF9108958E
:10069000CF93DF9300D0CDB7DEB79A83898389816A
:1006A0009A818130910509F18230910571F1892B90
:1006B00009F03BC081E090E09A8389831092470162
:1006C00080913601882F90E08E5E9E4FFC018081E4
:1006D0008093480180913601882F90E0855E9E4F7F
:1006E000FC0180818093490120C090914701809155
:1006F0004901981728F481E090E09A83898315C016
:1007000082E090E09A83898310C0909147018091A4
:100710004901981728F482E090E09A83898304C005
:1007200081E090E09A838983000089819A818130F9
:10073000910519F00297D1F038C0809147018F5F81
:10074000809347019091470180914901981750F19A
:10075000809148018E6F8E3F29F1809148018695E6
:10076000806880934801109247011CC08091470126
:100770008F5F8093470190914701809149019817BD
:1007800098F0809148018F678F3771F08091480110
:10079000882F90E0880F991F816080934801109204
:1007A000470102C0000001C0000080913701809322
:1007B00024018091480180932D0189819A810F90B5
:1007C0000F90DF91CF910895CF93DF9300D0CDB7F5
:1007D000DEB79A83898389819A8181309105F1F00E
:1007E000823091051CF4892B41F05CC08230910568
:1007F000A1F1039709F451C055C081E090E09A83BC
:1008000089838091370180934A01809139018093D7
:1008100072018091720180932D0144C08091360154
:10082000882F90E08C5D9E4FFC01908180914A0161
:10083000981771F080914A01869580934A018091C2
:100840004A018093240181E090E09A8389832AC041
:1008500082E090E09A83898325C080914B018F3F8D
:1008600029F483E090E09A8389831CC081E090E0C2
:100870009A83898380913601882F90E0885C9E4F0F
:10088000FC018081809372018091720180932D011F
:100890008091370180934A0105C083E090E09A83FC
:1008A0008983000089819A818230910541F08330EB
:1008B000910509F483C0019709F482C084C0809136
:1008C000720180934C0180913601823008F462C03D
:1008D00080913601882F90E00197835D9E4FFC0147
:1008E000808180934D0110924E0144C090914C0143
:1008F00080914D018927882F90E081709927892B5D
:10090000C9F480914C01817080934F0180914F0117
:10091000882F90E020914E01222F30E002C0880FF6
:10092000991F2A95E2F7982F80914B01892B80938C
:100930004B0111C080914E01282F30E081E090E002
:1009400002C0880F991F2A95E2F7982F80914B01DA
:10095000892B80934B0180914C01869580934C01AB
:1009600080914D01869580934D0180914E018F5F5E
:1009700080934E0180914E01883008F4B7CF80916A
:100980003601882F90E020914B01835D9E4FFC0142
:1009900020830AC080913601882F90E020914C017D
:1009A000835D9E4FFC01208380913601883050F496
:1009B000809136018F5F8093360104C0000003C030
:1009C000000001C0000089819A810F900F90DF9193
:1009D000CF910895CF93DF9300D0CDB7DEB79A8340
:1009E000898389819A81009719F0019731F00AC0B3
:1009F00081E090E09A83898305C081E090E09A834A
:100A00008983000089819A81009761F1019709F03B
:100A10002AC080915001882F90E0835D9E4FFC0199
:100A200080818093510180915001882F90E08C5DEE
:100A30009E4FFC01808180935201809151010E9460
:100A4000B602809152010E94FF02809150018830CD
:100A500030F4809150018F5F8093500104C0109258
:100A6000500101C0000089819A810F900F90DF91A1
:100A7000CF9108950F931F93CF93DF93CDB7DEB738
:100A80002A970FB6F894DEBF0FBECDBF87E290E085
:100A90002FEFFC01208388E290E0FC01108281E2CC
:100AA00090E02FE0FC01208382E290E020EFFC0147
:100AB000208383E591E098878F838EE591E09A8784
:100AC000898782E090E09E838D831092530184E6B3
:100AD00090E0A0E0B0E08093540190935501A09382
:100AE0005601B09357018091540190915501A09106
:100AF0005601B09157018093580190935901A093EA
:100B00005A01B0935B0188E493E090935D01809378
:100B10005C0110925E0182E090E0A0E0B0E0809382
:100B20005F0190936001A0936101B0936201809195
:100B30005F0190916001A0916101B0916201809389
:100B4000630190936401A0936501B09366018AEEFE
:100B500094E090936801809367018F819885FC01F0
:100B600081819281A381B48189839A83AB83BC8381
:100B700081E08093690127C080916901882F90E00E
:100B8000880F991F9E012F5F3F4F820F931F06967C
:100B9000FC0180819181FC0121813281438154815A
:100BA00089819A81AB81BC81BC01CD010E9469021F
:100BB000DC01CB0189839A83AB83BC83809169017B
:100BC0008F5F8093690180916901282F30E08D81CA
:100BD0009E812817390780F289819A81AB81BC8177
:100BE000BC01CD010E948B010E94B90110926A01E3
:100BF000B0C080916A01882F90E0880F991F9E01F4
:100C00002F5F3F4F820F931F0696FC0180819181D9
:100C1000FC01258136814781508580916A01882FAA
:100C200090E0880F991FBE016F5F7F4F860F971F5F
:100C30000696FC0180819181FC0181819281A381D2
:100C4000B481281739074A075B0709F04DC0809126
:100C50006A01882F90E0880F991F9E012F5F3F4FF8
:100C6000820F931F0696FC010081118180916A0119
:100C7000882F90E0880F991F9E012F5F3F4F820FB2
:100C8000931F0696FC0180819181FC0121853285AC
:100C900080916A01882F90E0880F991FAE014F5F05
:100CA0005F4F840F951F0696FC0180819181FC01A6
:100CB0008081082E000C990BF9010995F8018083B9
:100CC00080916A01882F90E0880F991F9E012F5F05
:100CD0003F4F820F931F0696FC0180819181FC019A
:100CE000158216821782108680916A01882F90E003
:100CF000880F991F9E012F5F3F4F820F931F06960B
:100D0000FC016081718180916A01882F90E0880FD9
:100D1000991F9E012F5F3F4F820F931F0696FC0184
:100D200080819181FC0125813681478150858981AF
:100D30009A81AB81BC81820F931FA41FB51FFB0159
:100D400085839683A783B08780916A018F5F8093A4
:100D50006A0180916A01282F30E08D819E812817D9
:100D6000390708F446CF0000809142018823E1F35F
:100D7000109242013BCFA1E21A2EAA1BBB1BFD0120
:100D80000DC0AA1FBB1FEE1FFF1FA217B307E4076A
:100D9000F50720F0A21BB30BE40BF50B661F771FC2
:100DA000881F991F1A9469F76095709580959095A2
:0E0DB0009B01AC01BD01CF010895F894FFCF67
:100DBE0000000002000000006201000000000100BF
:100DCE000000FFC7C7E7E7E7F7F7F70006060404DA
:100DDE0004020202000102040810204080FFC7C76F
:100DEE00E7E7FFFFFFFF0580FFC7E3E7E7FBFBFB3E
:020DFE00FB00F8
:00000001FF
