:100000000C944D000C946C000C946C000C946C00DF
:100010000C946C000C946C000C946C000C946C00B0
:100020000C946C000C946C000C946C000C946C00A0
:100030000C946C000C940E020C946C000C946C00EC
:100040000C946C000C946C000C946C000C946C0080
:100050000C946C000C946C000C946C000C946C0070
:100060000C946C000C946C000C946C000C946C0060
:100070000C946C000C946C000C946C000C946C0050
:100080000C946C000C946C000C946C00E7040A0552
:10009000270544055F05BE052A0611241FBECFEFC4
:1000A000D0E4DEBFCDBF11E0A0E0B1E0EEE2F4E1CC
:1000B00000E00BBF02C007900D92A034B107D9F742
:1000C00021E0A0E4B1E001C01D92AE37B207E1F734
:1000D0000E9438080C94150A0C940000CF93DF930B
:1000E000CDB7DEB781E00E9495000000DF91CF918F
:1000F0000895CF93DF93CDB7DEB784E690E00E94FA
:10010000390188E30E94950086E00E9495008FE007
:100110000E94950081E00E9495008AE090E00E9494
:1001200039010000DF91CF910895CF93DF931F92A3
:10013000CDB7DEB789838BE290E02BE230E0F901A6
:1001400020812F7BFC01208388E290E02981FC0143
:1001500020838BE290E02BE230E0F90120812068DF
:10016000FC01208300008BE290E02BE230E0F901FB
:1001700020812F77FC01208382E090E00E943901EA
:1001800000000F90DF91CF910895CF93DF931F92DE
:10019000CDB7DEB789838BE290E02BE230E0F90146
:1001A00020812064FC01208388E290E02981FC0109
:1001B00020838BE290E02BE230E0F901208120687F
:1001C000FC01208300008BE290E02BE230E0F9019B
:1001D00020812F77FC01208381E090E00E9439018B
:1001E00000000F90DF91CF910895CF93DF9300D05F
:1001F00000D0CDB7DEB78A837C836B830E946E000C
:100200008A81898311C0898191E0980F99830E9426
:1002100022018B819C819C012F5F3F4F3C832B836C
:10022000FC0180810E94C5008B819C81FC01808142
:10023000882349F700000F900F900F900F90DF91E7
:10024000CF910895CF93DF931F92CDB7DEB7898307
:100250008981813128F4898181580E94950004C0E8
:10026000898181550E94950000000F90DF91CF9108
:100270000895CF93DF9300D000D000D0CDB7DEB784
:100280009E838D831A82198213C01C821B8206C032
:1002900000008B819C8101969C838B838B819C8148
:1002A00087309340ACF389819A8101969A83898340
:1002B00029813A818D819E812817390734F3000006
:1002C00026960FB6F894DEBF0FBECDBFDF91CF915B
:1002D0000895CF93DF9300D01F92CDB7DEB7898307
:1002E0007B836A8389818A3031F48A819B81BC0156
:1002F0008DE00E94690180EC90E0FC018081882FF4
:1003000090E080729927892BB1F386EC90E02981E7
:10031000FC01208380E090E00F900F900F90DF9120
:10032000CF910895CF93DF9300D000D0CDB7DEB743
:1003300069837A838B839C8389819A81AB81BC8119
:1003400080930E0190930F01A0931001B0931101BF
:1003500080910E0190910F01A0911001B0911101B7
:100360008093410190934201A0934301B0934401D3
:1003700000000F900F900F900F90DF91CF91089594
:10038000CF93DF93CDB7DEB781E890E02BE0FC019F
:10039000208388E890E02DE730E0FC013183208362
:1003A0008FE690E022E0FC01208384E890E0FC01ED
:1003B0001182108280910E0190910F01A091100185
:1003C000B09111018093410190934201A0934301A8
:1003D000B09344018FE590E02FE530E0F9012081F2
:1003E0002068FC0120830000DF91CF910895CF9316
:1003F000DF93CDB7DEB781E890E0FC01108200000A
:10040000DF91CF910895CF93DF93CDB7DEB781E031
:10041000809340010000DF91CF9108951F920F92C9
:1004200000905F000F92112400905B000F922F93B9
:100430003F934F935F936F937F938F939F93AF936C
:10044000BF93EF93FF93CF93DF93CDB7DEB7809148
:10045000410190914201A0914301B0914401019763
:10046000A109B1098093410190934201A0934301F6
:10047000B09344018091410190914201A0914301C8
:10048000B0914401892B8A2B8B2B91F40E9403029B
:1004900080910E0190910F01A0911001B091110176
:1004A0008093410190934201A0934301B093440192
:1004B0000000DF91CF91FF91EF91BF91AF919F919C
:1004C0008F917F916F915F914F913F912F910F90FD
:1004D00000925B000F9000925F000F901F901895A4
:1004E000CF93DF93CDB7DEB72C970FB6F894DEBF6E
:1004F0000FBECDBF6D837E838F83988729873A8710
:100500004B875C878D819E81AF81B88529853A852F
:100510004B855C85BC01CD010E94EA09DC01CB0161
:1005200089839A83AB83BC8389819A81AB81BC81A7
:10053000892B8A2B8B2B29F489859A85AB85BC85E1
:1005400011C089859A85AB85BC858D839E83AF83D9
:10055000B88789819A81AB81BC8189879A87AB876B
:10056000BC87D0CFBC01CD012C960FB6F894DEBF6E
:100570000FBECDBFDF91CF910895CF93DF9300D011
:100580001F92CDB7DEB78B831A82198227C088E20B
:1005900090E028E0FC01208388E290E028E230E04F
:1005A000F9012081422F2B81222F30E0098002C0E7
:1005B000359527950A94E2F72170242BFC012083BE
:1005C00088E290E028E230E0F90120812460FC011B
:1005D000208389819A8101969A83898389819A816E
:1005E0000897ACF288E290E028E230E0F90120813F
:1005F0002260FC01208388E290E0FC011082000070
:100600000F900F900F90DF91CF910895CF93DF93CC
:1006100000D01F92CDB7DEB78B831A82198227C014
:1006200082E290E028E0FC01208382E290E022E276
:1006300030E0F9012081422F2B81222F30E0098008
:1006400002C0359527950A94E2F72170242BFC010E
:10065000208382E290E022E230E0F90120812460F0
:10066000FC01208389819A8101969A8389838981FB
:100670009A810897ACF282E290E022E230E0F90140
:1006800020812260FC01208382E290E0FC01108244
:1006900000000F900F900F90DF91CF910895CF93AE
:1006A000DF931F92CDB7DEB7898389818130E9F06E
:1006B00081EC90E021EC30E0F90120812861FC011F
:1006C000208382EC90E022EC30E0F901208126606A
:1006D000FC01208384EC90E02FE3FC01208385EC77
:1006E00090E02CE9FC0120831CC089EC90E029EC0F
:1006F00030E0F90120812861FC0120838AEC90E040
:100700002AEC30E0F90120812660FC0120838CEC8A
:1007100090E02FE3FC0120838DEC90E02CE9FC01BC
:10072000208300000F90DF91CF910895CF93DF9346
:100730001F92CDB7DEB789838981813031F080EC9B
:1007400090E0FC018081807205C088EC90E0FC01A3
:10075000808180720F90DF91CF910895CF93DF93C6
:100760001F92CDB7DEB789838981813031F080EC6B
:1007700090E0FC018081807405C088EC90E0FC0171
:10078000808180740F90DF91CF910895CF93DF9394
:100790001F92CDB7DEB789838981813031F080EC3B
:1007A00090E0FC018081807805C088EC90E0FC013D
:1007B000808180780F90DF91CF910895CF93DF9360
:1007C0001F92CDB7DEB7898389818130A1F006C041
:1007D00086EC90E0FC0180818093460180EC90E003
:1007E000FC0180818823A4F30CC08EEC90E0FC0116
:1007F00080818093460188EC90E0FC018081882311
:10080000A4F300000F90DF91CF910895CF93DF9371
:1008100000D0CDB7DEB789836A838A81813089F0C1
:10082000000080EC90E0FC018081882F90E08072D5
:100830009927892BB1F386EC90E02981FC01208374
:1008400010C0000088EC90E0FC018081882F90E0CF
:1008500080729927892BB1F38EEC90E02981FC01FD
:10086000208300000F900F90DF91CF910895CF93D8
:10087000DF931F92CDB7DEB789838981813061F024
:10088000000080EC90E0FC0180818823D4F786ECA6
:1008900090E0FC0180810BC0000088EC90E0FC013E
:1008A00080818823D4F78EEC90E0FC0180810F904A
:1008B000DF91CF910895CF93DF9300D01F92CDB7F2
:1008C000DEB79B838A8383E290E0FC0180818074A1
:1008D00089838A819B818130910589F082309105DD
:1008E0001CF4892B39F035C082309105C1F0039793
:1008F00021F12FC081E090E09B838A832BC0898106
:10090000882341F082E090E09B838A8381E080939A
:10091000450120C081E090E09B838A831BC08981D0
:10092000882339F083E090E09B838A83109245010D
:1009300004C081E090E09B838A838981882329F029
:1009400083E090E09B838A8304C081E090E09B83F6
:100950008A8300008A819B818230910549F083302F
:10096000910541F0019709F006C01092450103C0BE
:10097000000001C000008A819B810F900F900F90B2
:10098000DF91CF910895CF93DF9300D01F92CDB721
:10099000DEB79B838A8383E290E0FC0180818095AF
:1009A000807889838A819B81092E000CAA0BBB0B5E
:1009B00040E050E026E030E0841B950B2817390713
:1009C00008F4B4C18A5B9F4FFC010C940C0A81E0CF
:1009D00090E09B838A831092470180913601882F93
:1009E00090E08E5E9E4FFC01808180934801809153
:1009F0003601882F90E0855E9E4FFC0180818093B8
:100A000049018091370180932401809148018093AE
:100A10002D018FC180914501882349F083E090E04A
:100A20009B838A838091370180934A0182C1909190
:100A3000470180914901981728F481E090E09B8359
:100A40008A8377C182E090E09B838A8372C1809120
:100A50004501882349F083E090E09B838A8380915D
:100A6000370180934A0165C1909147018091490106
:100A7000981728F482E090E09B838A835AC181E032
:100A800090E09B838A8355C180913601882F90E046
:100A90008C5D9E4FFC01908180914A01981751F026
:100AA00080914A01869580934A0183E090E09B8380
:100AB0008A833FC184E090E09B838A833AC180911E
:100AC0004B018F3FA1F485E090E09B838A8380E017
:100AD0000E949603882309F42BC160E082E30E9400
:100AE00006048BE290E020ECFC01208321C1809180
:100AF00036018830D8F086E090E09B838A8380E0DE
:100B00000E949603882349F060E081E30E94060476
:100B10008BE290E020E4FC01208310922D011092E2
:100B2000240110924C011092470102C181E090E033
:100B30009B838A8310924701809136018F5F809357
:100B4000360180913601882F90E08E5E9E4FFC0129
:100B500080818093480180913601882F90E0855EE6
:100B60009E4FFC01808180934901809137018093E1
:100B700024018091480180932D01DAC08981882366
:100B800009F463C081E090E09B838A8380E00E9447
:100B90009603882349F060E080E30E9406048BE21C
:100BA00090E020E8FC012083109224018FEF8093D5
:100BB0002D0110924C0123C080914C01882F90E0B0
:100BC0000196835D9E4F2FEFFC01208380914C01A5
:100BD000882F90E0019620914C01422F50E021E0B7
:100BE00030E002C0220F331F4A95E2F78C5D9E4F22
:100BF000FC01208380914C018F5F80934C01809198
:100C00004C018830C8F281E0809336011092470190
:100C100080913601882F90E08E5E9E4FFC0180818E
:100C20008093480180913601882F90E0855E9E4F29
:100C3000FC018081809349018091370180932401D8
:100C40008091480180932D0174C085E090E09B83E2
:100C50008A836FC08981882309F463C081E090E0B2
:100C60009B838A8380E00E949603882349F060E09A
:100C700080E30E9406048BE290E020E8FC012083E0
:100C8000109224018FEF80932D0110924C0123C00C
:100C900080914C01882F90E00196835D9E4F2FEF4D
:100CA000FC01208380914C01882F90E001962091D7
:100CB0004C01422F50E021E030E002C0220F331FF0
:100CC0004A95E2F78C5D9E4FFC01208380914C0198
:100CD0008F5F80934C0180914C018830C8F281E095
:100CE000809336011092470180913601882F90E061
:100CF0008E5E9E4FFC018081809348018091360179
:100D0000882F90E0855E9E4FFC0180818093490191
:100D100080913701809324018091480180932D01B7
:100D200008C086E090E09B838A8303C0000001C076
:100D300000008A819B818330910509F45AC0843078
:100D4000910534F48130910579F0029771F13BC13E
:100D50008530910509F434C1853091050CF44EC0FD
:100D6000069709F4C5C02FC1809147018F5F80931A
:100D700047019091470180914901981768F080914F
:100D800048018E6F8E3F41F08091480186958068C2
:100D9000809348011092470180913701809324018C
:100DA0008091480180932D010EC1809147018F5F92
:100DB000809347019091470180914901981780F0F5
:100DC000809148018F678F3759F080914801882FB3
:100DD00090E0880F991F816080934801109247012D
:100DE00080913701809324018091480180932D01E7
:100DF000EAC080914A0180932401E5C080914801B6
:100E000080934D0180913601823008F462C0809158
:100E10003601882F90E00197835D9E4FFC01808111
:100E200080934E0110924C0144C090914D018091ED
:100E30004E018927882F90E081709927892BC9F46A
:100E400080914D01817080934F0180914F01882FD7
:100E500090E020914C01222F30E002C0880F991FB2
:100E60002A95E2F7982F80914B01892B80934B01B3
:100E700011C080914C01282F30E081E090E002C049
:100E8000880F991F2A95E2F7982F80914B01892BA3
:100E900080934B0180914D01869580934D01809107
:100EA0004E01869580934E0180914C018F5F809317
:100EB0004C0180914C01883008F4B7CF8091360105
:100EC000882F90E020914B01835D9E4FFC01208391
:100ED0007AC080914D0180934B0180913601882F1B
:100EE00090E020914B01835D9E4FFC0120836BC0FD
:100EF000809147018F5F80934701809147018A303D
:100F000008F460C080914C01883018F580914C0144
:100F1000882F90E00196835D9E4FFC0110828091A6
:100F20004C01882F90E0019620914C01422F50E017
:100F300020E830E002C0359527954A95E2F78C5DB0
:100F40009E4FFC01208380914C018F5F80934C0168
:100F500033C0809139018823C1F0109250010EC036
:100F600080915001882F90E0835D9E4F2FEFFC0110
:100F70002083809150018F5F8093500180915001B8
:100F8000893070F31092390117C0109250010DC0D2
:100F900080915001882F90E0835D9E4FFC0110826C
:100FA000809150018F5F8093500180915001893072
:100FB00078F381E08093390185E08093470102C096
:100FC000000001C000008A819B810F900F900F905C
:100FD000DF91CF910895CF93DF9300D0CDB7DEB7E7
:100FE0009A83898389819A81009719F0019731F05A
:100FF0000AC081E090E09A83898305C081E090E097
:101000009A838983000089819A81019709F029C018
:1010100080915101882F90E0835D9E4FFC0180817B
:101020008093520180915101882F90E08C5D9E4FFA
:10103000FC01808180935301809152010E94BD0286
:10104000809153010E94060380915101883030F451
:10105000809151018F5F8093510102C01092510124
:10106000000089819A810F900F90DF91CF910895B0
:101070000F931F93CF93DF93CDB7DEB72C970FB6A7
:10108000F894DEBF0FBECDBF87E290E02FEFFC01EA
:10109000208388E290E0FC01108284E290E02FE05F
:1010A000FC01208385E290E020EFFC01208381E2B7
:1010B00090E02FEFFC01208382E290E0FC0110829F
:1010C00080E00E944F0386E0EAE3F1E0DE0117963C
:1010D00001900D928A95E1F783E090E09E838D83E5
:1010E0001092540184E690E0A0E0B0E080935501B6
:1010F00090935601A0935701B093580180915501E8
:1011000090915601A0915701B091580180935901D7
:1011100090935A01A0935B01B0935C018BE594E03E
:1011200090935E0180935D0110925F0184E690E0F0
:10113000A0E0B0E08093600190936101A093620110
:10114000B09363018091600190916101A09162016F
:10115000B09163018093640190936501A09366014F
:10116000B093670183EC94E09093690180936801E8
:1011700010926A0182E090E0A0E0B0E080936B0101
:1011800090936C01A0936D01B0936E0180916B01FF
:1011900090916C01A0916D01B0916E0180936F01EF
:1011A00090937001A0937101B09372018BEE97E060
:1011B00090937401809373018F819885FC018181E4
:1011C0009281A381B48189839A83AB83BC8381E0BC
:1011D0008093750127C080917501882F90E0880F5A
:1011E000991F9E012F5F3F4F820F931F0696FC01B0
:1011F00080819181FC0121813281438154818981E7
:101200009A81AB81BC81BC01CD010E947002DC01DE
:10121000CB0189839A83AB83BC83809175018F5FF7
:101220008093750180917501282F30E08D819E811A
:101230002817390780F289819A81AB81BC81BC0172
:10124000CD010E9492010E94C00110927601B0C0AF
:1012500080917601882F90E0880F991F9E012F5F63
:101260003F4F820F931F0696FC0180819181FC0104
:10127000258136814781508580917601882F90E0C5
:10128000880F991FBE016F5F7F4F860F971F0696CD
:10129000FC0180819181FC0181819281A381B481D3
:1012A000281739074A075B0709F04DC0809176017E
:1012B000882F90E0880F991F9E012F5F3F4F820F6C
:1012C000931F0696FC010081118180917601882F81
:1012D00090E0880F991F9E012F5F3F4F820F931F51
:1012E0000696FC0180819181FC01218532858091E7
:1012F0007601882F90E0880F991FAE014F5F5F4FF6
:10130000840F951F0696FC0180819181FC018081EC
:10131000082E000C990BF9010995F8018083809142
:101320007601882F90E0880F991F9E012F5F3F4F15
:10133000820F931F0696FC0180819181FC0115822A
:1013400016821782108680917601882F90E0880F90
:10135000991F9E012F5F3F4F820F931F0696FC013E
:101360006081718180917601882F90E0880F991FAC
:101370009E012F5F3F4F820F931F0696FC018081D5
:101380009181FC01258136814781508589819A812F
:10139000AB81BC81820F931FA41FB51FFB01858306
:1013A0009683A783B087809176018F5F80937601C3
:1013B00080917601282F30E08D819E812817390792
:1013C00008F446CF0000809140018823E1F3109299
:1013D00040013BCFA1E21A2EAA1BBB1BFD010DC091
:1013E000AA1FBB1FEE1FFF1FA217B307E407F507D5
:1013F00020F0A21BB30BE40BF50B661F771F881FB1
:10140000991F1A9469F760957095809590959B0146
:10141000AC01BD01CF010895EE0FFF1F0024001C99
:0E1420000BBE0790F691E02D0994F894FFCFD3
:10142E000000000200000000690100000000010041
:10143E000000FFC7C7E7E7E7F7F7F700030302026D
:10144E0002010101000102040810204080FFFFFF8D
:10145E00FFFFFFFFFFFF0180FF0154015F016A01E3
:00000001FF
