:100000000C944D000C946C000C946C000C946C00DF
:100010000C946C000C946C000C946C000C946C00B0
:100020000C946C000C946C000C946C000C946C00A0
:100030000C946C000C940E020C946C000C946C00EC
:100040000C946C000C946C000C946C000C946C0080
:100050000C946C000C946C000C946C000C946C0070
:100060000C946C000C946C000C946C000C946C0060
:100070000C946C000C946C000C946C000C946C0050
:100080000C946C000C946C000C946C007A039D032F
:10009000B903D503F00332043F0411241FBECFEF90
:1000A000D0E4DEBFCDBF11E0A0E0B1E0EEE4FFE0C0
:1000B00000E00BBF02C007900D92AA33B107D9F739
:1000C00021E0AAE3B1E001C01D92A936B207E1F731
:1000D0000E94F0050C94A5070C940000CF93DF93C9
:1000E000CDB7DEB781E00E9495000000DF91CF918F
:1000F0000895CF93DF93CDB7DEB784E690E00E94FA
:10010000390188E30E94950086E00E9495008FE007
:100110000E94950081E00E9495008AE090E00E9494
:1001200039010000DF91CF910895CF93DF931F92A3
:10013000CDB7DEB789838BE290E02BE230E0F901A6
:1001400020812F7BFC01208388E290E02981FC0143
:1001500020838BE290E02BE230E0F90120812068DF
:10016000FC01208300008BE290E02BE230E0F901FB
:1001700020812F77FC01208382E090E00E943901EA
:1001800000000F90DF91CF910895CF93DF931F92DE
:10019000CDB7DEB789838BE290E02BE230E0F90146
:1001A00020812064FC01208388E290E02981FC0109
:1001B00020838BE290E02BE230E0F901208120687F
:1001C000FC01208300008BE290E02BE230E0F9019B
:1001D00020812F77FC01208381E090E00E9439018B
:1001E00000000F90DF91CF910895CF93DF9300D05F
:1001F00000D0CDB7DEB78A837C836B830E946E000C
:100200008A81898311C0898191E0980F99830E9426
:1002100022018B819C819C012F5F3F4F3C832B836C
:10022000FC0180810E94C5008B819C81FC01808142
:10023000882349F700000F900F900F900F90DF91E7
:10024000CF910895CF93DF931F92CDB7DEB7898307
:100250008981813128F4898181580E94950004C0E8
:10026000898181550E94950000000F90DF91CF9108
:100270000895CF93DF9300D000D000D0CDB7DEB784
:100280009E838D831A82198213C01C821B8206C032
:1002900000008B819C8101969C838B838B819C8148
:1002A00087309340ACF389819A8101969A83898340
:1002B00029813A818D819E812817390734F3000006
:1002C00026960FB6F894DEBF0FBECDBFDF91CF915B
:1002D0000895CF93DF9300D01F92CDB7DEB7898307
:1002E0007B836A8389818A3031F48A819B81BC0156
:1002F0008DE00E94690180EC90E0FC018081882FF4
:1003000090E080729927892BB1F386EC90E02981E7
:10031000FC01208380E090E00F900F900F90DF9120
:10032000CF910895CF93DF9300D000D0CDB7DEB743
:1003300069837A838B839C8389819A81AB81BC8119
:1003400080930E0190930F01A0931001B0931101BF
:1003500080910E0190910F01A0911001B0911101B7
:1003600080933B0190933C01A0933D01B0933E01EB
:1003700000000F900F900F900F90DF91CF91089594
:10038000CF93DF93CDB7DEB781E890E02BE0FC019F
:10039000208388E890E02DE730E0FC013183208362
:1003A0008FE690E022E0FC01208384E890E0FC01ED
:1003B0001182108280910E0190910F01A091100185
:1003C000B091110180933B0190933C01A0933D01BA
:1003D000B0933E018FE590E02FE530E0F9012081F8
:1003E0002068FC0120830000DF91CF910895CF9316
:1003F000DF93CDB7DEB781E890E0FC01108200000A
:10040000DF91CF910895CF93DF93CDB7DEB781E031
:1004100080933A010000DF91CF9108951F920F92CF
:1004200000905F000F92112400905B000F922F93B9
:100430003F934F935F936F937F938F939F93AF936C
:10044000BF93EF93FF93CF93DF93CDB7DEB7809148
:100450003B0190913C01A0913D01B0913E0101977B
:10046000A109B10980933B0190933C01A0933D0108
:10047000B0933E0180913B0190913C01A0913D01E0
:10048000B0913E01892B8A2B8B2B91F40E940302A1
:1004900080910E0190910F01A0911001B091110176
:1004A00080933B0190933C01A0933D01B0933E01AA
:1004B0000000DF91CF91FF91EF91BF91AF919F919C
:1004C0008F917F916F915F914F913F912F910F90FD
:1004D00000925B000F9000925F000F901F901895A4
:1004E000CF93DF93CDB7DEB72C970FB6F894DEBF6E
:1004F0000FBECDBF6D837E838F83988729873A8710
:100500004B875C878D819E81AF81B88529853A852F
:100510004B855C85BC01CD010E947A07DC01CB01D3
:1005200089839A83AB83BC8389819A81AB81BC81A7
:10053000892B8A2B8B2B29F489859A85AB85BC85E1
:1005400011C089859A85AB85BC858D839E83AF83D9
:10055000B88789819A81AB81BC8189879A87AB876B
:10056000BC87D0CFBC01CD012C960FB6F894DEBF6E
:100570000FBECDBFDF91CF910895CF93DF9300D011
:100580001F92CDB7DEB78B831A82198227C088E20B
:1005900090E028E0FC01208388E290E028E230E04F
:1005A000F9012081422F2B81222F30E0098002C0E7
:1005B000359527950A94E2F72170242BFC012083BE
:1005C00088E290E028E230E0F90120812460FC011B
:1005D000208389819A8101969A83898389819A816E
:1005E0000897ACF288E290E028E230E0F90120813F
:1005F0002260FC01208388E290E0FC011082000070
:100600000F900F900F90DF91CF910895CF93DF93CC
:1006100000D01F92CDB7DEB78B831A82198227C014
:1006200082E290E028E0FC01208382E290E022E276
:1006300030E0F9012081422F2B81222F30E0098008
:1006400002C0359527950A94E2F72170242BFC010E
:10065000208382E290E022E230E0F90120812460F0
:10066000FC01208389819A8101969A8389838981FB
:100670009A810897ACF282E290E022E230E0F90140
:1006800020812260FC01208382E290E0FC01108244
:1006900000000F900F900F90DF91CF910895CF93AE
:1006A000DF9300D000D0CDB7DEB79C838B8383E28D
:1006B00090E0FC01808180958074898383E290E0E2
:1006C000FC018081809580788A838B819C81092EB2
:1006D000000CAA0BBB0B40E050E026E030E0841B8E
:1006E000950B2817390708F4D7C08A5B9F4FFC0188
:1006F0000C949C0781E090E09C838B8310923F01D7
:1007000080913601882F90E08E5E9E4FFC018081A3
:100710008093400180913601882F90E0855E9E4F46
:10072000FC018081809341018091370180932401F5
:100730008091400180932D01B0C08981882349F0C8
:1007400083E090E09C838B8380913701809342010A
:10075000A4C090913F0180914101981728F481E055
:1007600090E09C838B8399C082E090E09C838B8394
:1007700094C08981882349F083E090E09C838B8337
:10078000809137018093420188C090913F01809110
:100790004101981728F482E090E09C838B837DC010
:1007A00081E090E09C838B8378C080913601882F14
:1007B00090E08C5D9E4FFC019081809142019817E2
:1007C00051F08091420186958093420183E090E050
:1007D0009C838B8362C084E090E09C838B835DC0AC
:1007E000809143018F3F29F485E090E09C838B83C7
:1007F00054C080913601883068F086E090E09C8398
:100800008B8310922D0110922401109244011092BA
:100810003F0143C081E090E09C838B8310923F01B5
:10082000809136018F5F8093360180913601882F49
:1008300090E08E5E9E4FFC0180818093400180910C
:100840003601882F90E0855E9E4FFC018081809369
:100850004101809137018093240180914001809370
:100860002D011BC08A81882329F081E090E09C83C0
:100870008B8313C085E090E09C838B830EC08A81BC
:10088000882329F081E090E09C838B8306C086E07A
:1008900090E09C838B8301C000008B819C8183301E
:1008A000910509F45AC08430910534F481309105E2
:1008B00079F0029771F13BC18530910509F434C19B
:1008C000853091050CF44EC0069709F4C5C02FC1C0
:1008D00080913F018F5F80933F0190913F01809114
:1008E0004101981768F0809140018E6F8E3F41F072
:1008F00080914001869580688093400110923F016D
:1009000080913701809324018091400180932D01D3
:100910000EC180913F018F5F80933F0190913F0115
:1009200080914101981780F0809140018F678F3747
:1009300059F080914001882F90E0880F991F8160C5
:100940008093400110923F018091370180932401F0
:100950008091400180932D01EAC0809142018093F3
:100960002401E5C0809140018093450180913601CA
:10097000823008F462C080913601882F90E00197A0
:10098000835D9E4FFC01808180934601109244015B
:1009900044C090914501809146018927882F90E0BD
:1009A00081709927892BC9F48091450181708093CA
:1009B000470180914701882F90E020914401222F28
:1009C00030E002C0880F991F2A95E2F7982F809196
:1009D0004301892B8093430111C080914401282F4A
:1009E00030E081E090E002C0880F991F2A95E2F77D
:1009F000982F80914301892B809343018091450179
:100A000086958093450180914601869580934601A5
:100A1000809144018F5F809344018091440188302C
:100A200008F4B7CF80913601882F90E020914301E0
:100A3000835D9E4FFC0120837AC0809145018093A5
:100A4000430180913601882F90E020914301835D1E
:100A50009E4FFC0120836BC080913F018F5F80938C
:100A60003F0180913F018A3008F460C080914401C9
:100A7000883018F580914401882F90E00196835DBD
:100A80009E4FFC01108280914401882F90E00196D6
:100A900020914401422F50E020E830E002C035951B
:100AA00027954A95E2F78C5D9E4FFC01208380914B
:100AB00044018F5F8093440133C0809139018823C2
:100AC000C1F0109248010EC080914801882F90E03B
:100AD000835D9E4F2FEFFC012083809148018F5F43
:100AE0008093480180914801893070F31092390158
:100AF00017C0109248010DC080914801882F90E0E6
:100B0000835D9E4FFC011082809148018F5F80932E
:100B1000480180914801893078F381E08093390160
:100B200085E080933F0102C0000001C000008B817E
:100B30009C810F900F900F900F90DF91CF910895AF
:100B4000CF93DF9300D0CDB7DEB79A8389838981B5
:100B50009A81009719F0019731F00AC081E090E086
:100B60009A83898305C081E090E09A83898300009D
:100B700089819A81009761F1019709F02AC08091DB
:100B80004901882F90E0835D9E4FFC018081809316
:100B90004A0180914901882F90E08C5D9E4FFC01B5
:100BA000808180934B0180914A010E94BD02809117
:100BB0004B010E94060380914901883030F48091F6
:100BC00049018F5F8093490104C01092490101C01F
:100BD000000089819A810F900F90DF91CF91089545
:100BE0000F931F93CF93DF93CDB7DEB72A970FB63E
:100BF000F894DEBF0FBECDBF87E290E02FEFFC017F
:100C0000208388E290E0FC01108284E290E02FE0F3
:100C1000FC01208385E290E020EFFC01208381E24B
:100C200090E02FEFFC01208382E290E0FC01108233
:100C30008CE491E098878F8387E591E09A87898794
:100C400082E090E09E838D8310924C0184E690E0D8
:100C5000A0E0B0E080934D0190934E01A0934F012E
:100C6000B093500180914D0190914E01A0914F01A0
:100C7000B09150018093510190935201A093530180
:100C8000B09354018FE493E0909356018093550103
:100C90001092570182E090E0A0E0B0E0809358010C
:100CA00090935901A0935A01B0935B018091580130
:100CB00090915901A0915A01B0915B0180935C0120
:100CC00090935D01A0935E01B0935F0180EA95E08F
:100CD00090936101809360018F819885FC018181EF
:100CE0009281A381B48189839A83AB83BC8381E0A1
:100CF0008093620127C080916201882F90E0880F65
:100D0000991F9E012F5F3F4F820F931F0696FC0194
:100D100080819181FC0121813281438154818981CB
:100D20009A81AB81BC81BC01CD010E947002DC01C3
:100D3000CB0189839A83AB83BC83809162018F5FEF
:100D40008093620180916201282F30E08D819E8125
:100D50002817390780F289819A81AB81BC81BC0157
:100D6000CD010E9492010E94C00110926301B0C0A7
:100D700080916301882F90E0880F991F9E012F5F5B
:100D80003F4F820F931F0696FC0180819181FC01E9
:100D9000258136814781508580916301882F90E0BD
:100DA000880F991FBE016F5F7F4F860F971F0696B2
:100DB000FC0180819181FC0181819281A381B481B8
:100DC000281739074A075B0709F04DC08091630176
:100DD000882F90E0880F991F9E012F5F3F4F820F51
:100DE000931F0696FC010081118180916301882F79
:100DF00090E0880F991F9E012F5F3F4F820F931F36
:100E00000696FC0180819181FC01218532858091CB
:100E10006301882F90E0880F991FAE014F5F5F4FED
:100E2000840F951F0696FC0180819181FC018081D1
:100E3000082E000C990BF9010995F8018083809127
:100E40006301882F90E0880F991F9E012F5F3F4F0D
:100E5000820F931F0696FC0180819181FC0115820F
:100E600016821782108680916301882F90E0880F88
:100E7000991F9E012F5F3F4F820F931F0696FC0123
:100E80006081718180916301882F90E0880F991FA4
:100E90009E012F5F3F4F820F931F0696FC018081BA
:100EA0009181FC01258136814781508589819A8114
:100EB000AB81BC81820F931FA41FB51FFB018583EB
:100EC0009683A783B087809163018F5F80936301CE
:100ED00080916301282F30E08D819E81281739078A
:100EE00008F446CF000080913A018823E1F3109284
:100EF0003A013BCFA1E21A2EAA1BBB1BFD010DC07C
:100F0000AA1FBB1FEE1FFF1FA217B307E407F507B9
:100F100020F0A21BB30BE40BF50B661F771F881F95
:100F2000991F1A9469F760957095809590959B012B
:100F3000AC01BD01CF010895EE0FFF1F0024001C7E
:0E0F40000BBE0790F691E02D0994F894FFCFB8
:100F4E000000000200000000690100000000010026
:100F5E000000FFC7C7E7E7E7F7F7F7000606040448
:100F6E0004020202000102040810204080FFFFFF6D
:0A0F7E00FFFFFFFFFFFF0180FF01EE
:00000001FF
