:100000000C944D000C946C000C946C000C946C00DF
:100010000C946C000C946C000C946C000C946C00B0
:100020000C946C000C946C000C946C000C946C00A0
:100030000C946C000C940E020C946C000C946C00EC
:100040000C946C000C946C000C946C000C946C0080
:100050000C946C000C946C000C946C000C946C0070
:100060000C946C000C946C000C946C000C946C0060
:100070000C946C000C946C000C946C000C946C0050
:100080000C946C000C946C000C946C00DB03FE036D
:100090001B04380453049504F10411241FBECFEF50
:1000A000D0E4DEBFCDBF11E0A0E0B1E0E2E9F1E1D4
:1000B00000E00BBF02C007900D92A034B107D9F742
:1000C00021E0A0E4B1E001C01D92AD37B207E1F735
:1000D0000E94ED060C94C7080C940000CF93DF93A8
:1000E000CDB7DEB781E00E9495000000DF91CF918F
:1000F0000895CF93DF93CDB7DEB784E690E00E94FA
:10010000390188E30E94950086E00E9495008FE007
:100110000E94950081E00E9495008AE090E00E9494
:1001200039010000DF91CF910895CF93DF931F92A3
:10013000CDB7DEB789838BE290E02BE230E0F901A6
:1001400020812F7BFC01208388E290E02981FC0143
:1001500020838BE290E02BE230E0F90120812068DF
:10016000FC01208300008BE290E02BE230E0F901FB
:1001700020812F77FC01208382E090E00E943901EA
:1001800000000F90DF91CF910895CF93DF931F92DE
:10019000CDB7DEB789838BE290E02BE230E0F90146
:1001A00020812064FC01208388E290E02981FC0109
:1001B00020838BE290E02BE230E0F901208120687F
:1001C000FC01208300008BE290E02BE230E0F9019B
:1001D00020812F77FC01208381E090E00E9439018B
:1001E00000000F90DF91CF910895CF93DF9300D05F
:1001F00000D0CDB7DEB78A837C836B830E946E000C
:100200008A81898311C0898191E0980F99830E9426
:1002100022018B819C819C012F5F3F4F3C832B836C
:10022000FC0180810E94C5008B819C81FC01808142
:10023000882349F700000F900F900F900F90DF91E7
:10024000CF910895CF93DF931F92CDB7DEB7898307
:100250008981813128F4898181580E94950004C0E8
:10026000898181550E94950000000F90DF91CF9108
:100270000895CF93DF9300D000D000D0CDB7DEB784
:100280009E838D831A82198213C01C821B8206C032
:1002900000008B819C8101969C838B838B819C8148
:1002A00087309340ACF389819A8101969A83898340
:1002B00029813A818D819E812817390734F3000006
:1002C00026960FB6F894DEBF0FBECDBFDF91CF915B
:1002D0000895CF93DF9300D01F92CDB7DEB7898307
:1002E0007B836A8389818A3031F48A819B81BC0156
:1002F0008DE00E94690180EC90E0FC018081882FF4
:1003000090E080729927892BB1F386EC90E02981E7
:10031000FC01208380E090E00F900F900F90DF9120
:10032000CF910895CF93DF9300D000D0CDB7DEB743
:1003300069837A838B839C8389819A81AB81BC8119
:1003400080930E0190930F01A0931001B0931101BF
:1003500080910E0190910F01A0911001B0911101B7
:100360008093410190934201A0934301B0934401D3
:1003700000000F900F900F900F90DF91CF91089594
:10038000CF93DF93CDB7DEB781E890E02BE0FC019F
:10039000208388E890E02DE730E0FC013183208362
:1003A0008FE690E022E0FC01208384E890E0FC01ED
:1003B0001182108280910E0190910F01A091100185
:1003C000B09111018093410190934201A0934301A8
:1003D000B09344018FE590E02FE530E0F9012081F2
:1003E0002068FC0120830000DF91CF910895CF9316
:1003F000DF93CDB7DEB781E890E0FC01108200000A
:10040000DF91CF910895CF93DF93CDB7DEB781E031
:10041000809340010000DF91CF9108951F920F92C9
:1004200000905F000F92112400905B000F922F93B9
:100430003F934F935F936F937F938F939F93AF936C
:10044000BF93EF93FF93CF93DF93CDB7DEB7809148
:10045000410190914201A0914301B0914401019763
:10046000A109B1098093410190934201A0934301F6
:10047000B09344018091410190914201A0914301C8
:10048000B0914401892B8A2B8B2B91F40E9403029B
:1004900080910E0190910F01A0911001B091110176
:1004A0008093410190934201A0934301B093440192
:1004B0000000DF91CF91FF91EF91BF91AF919F919C
:1004C0008F917F916F915F914F913F912F910F90FD
:1004D00000925B000F9000925F000F901F901895A4
:1004E000CF93DF93CDB7DEB72C970FB6F894DEBF6E
:1004F0000FBECDBF6D837E838F83988729873A8710
:100500004B875C878D819E81AF81B88529853A852F
:100510004B855C85BC01CD010E949C08DC01CB01B0
:1005200089839A83AB83BC8389819A81AB81BC81A7
:10053000892B8A2B8B2B29F489859A85AB85BC85E1
:1005400011C089859A85AB85BC858D839E83AF83D9
:10055000B88789819A81AB81BC8189879A87AB876B
:10056000BC87D0CFBC01CD012C960FB6F894DEBF6E
:100570000FBECDBFDF91CF910895CF93DF9300D011
:100580001F92CDB7DEB78B831A82198227C088E20B
:1005900090E028E0FC01208388E290E028E230E04F
:1005A000F9012081422F2B81222F30E0098002C0E7
:1005B000359527950A94E2F72170242BFC012083BE
:1005C00088E290E028E230E0F90120812460FC011B
:1005D000208389819A8101969A83898389819A816E
:1005E0000897ACF288E290E028E230E0F90120813F
:1005F0002260FC01208388E290E0FC011082000070
:100600000F900F900F90DF91CF910895CF93DF93CC
:1006100000D01F92CDB7DEB78B831A82198227C014
:1006200082E290E028E0FC01208382E290E022E276
:1006300030E0F9012081422F2B81222F30E0098008
:1006400002C0359527950A94E2F72170242BFC010E
:10065000208382E290E022E230E0F90120812460F0
:10066000FC01208389819A8101969A8389838981FB
:100670009A810897ACF282E290E022E230E0F90140
:1006800020812260FC01208382E290E0FC01108244
:1006900000000F900F900F90DF91CF910895CF93AE
:1006A000DF9300D01F92CDB7DEB79B838A8383E2AE
:1006B00090E0FC018081807489838A819B818130F4
:1006C000910589F0823091051CF4892B39F035C0F1
:1006D00082309105C1F0039721F12FC081E090E0B5
:1006E0009B838A832BC08981882341F082E090E03C
:1006F0009B838A8381E08093450120C081E090E064
:100700009B838A831BC08981882339F083E090E032
:100710009B838A831092450104C081E090E09B8313
:100720008A838981882329F083E090E09B838A83F0
:1007300004C081E090E09B838A8300008A819B81D2
:100740008230910549F08330910541F0019709F01D
:1007500006C01092450103C0000001C000008A815C
:100760009B810F900F900F90DF91CF910895CF93C1
:10077000DF9300D01F92CDB7DEB79B838A8383E2DD
:1007800090E0FC0180818095807889838A819B81BB
:10079000092E000CAA0BBB0B40E050E026E030E035
:1007A000841B950B2817390708F477C18A5B9F4F84
:1007B000FC010C94BE0881E090E09B838A83109238
:1007C000460180913601882F90E08E5E9E4FFC019D
:1007D00080818093470180913601882F90E0855E6B
:1007E0009E4FFC0180818093480180913701809366
:1007F00024018091470180932D0150C180914501D2
:10080000882349F083E090E09B838A8380913701BD
:100810008093490143C19091460180914801981706
:1008200028F481E090E09B838A8338C182E090E0E5
:100830009B838A8333C180914501882349F083E0FB
:1008400090E09B838A83809137018093490126C180
:100850009091460180914801981728F482E090E039
:100860009B838A831BC181E090E09B838A8316C1AE
:1008700080913601882F90E08C5D9E4FFC01908125
:1008800080914901981751F0809149018695809394
:10089000490183E090E09B838A8300C184E090E07B
:1008A0009B838A83FBC080914A018F3F29F485E0B6
:1008B00090E09B838A83F2C080913601883068F093
:1008C00086E090E09B838A8310922D011092240190
:1008D00010924B0110924601E1C081E090E09B83B1
:1008E0008A8310924601809136018F5F8093360192
:1008F00080913601882F90E08E5E9E4FFC018081B2
:100900008093470180913601882F90E0855E9E4F4D
:10091000FC018081809348018091370180932401FC
:100920008091470180932D01B9C08981882309F402
:1009300053C081E090E09B838A83109224018FEF63
:1009400080932D0110924B0123C080914B01882F81
:1009500090E00196835D9E4F2FEFFC0120838091F4
:100960004B01882F90E0019620914B01422F50E0DF
:1009700021E030E002C0220F331F4A95E2F78C5D80
:100980009E4FFC01208380914B018F5F80934B0130
:1009900080914B018830C8F281E0809336018091CC
:1009A0003601882F90E08E5E9E4FFC0180818093FF
:1009B000470180913601882F90E0855E9E4FFC01B3
:1009C0008081809348018091370180932401809138
:1009D000470180932D0162C085E090E09B838A836C
:1009E0005DC08981882309F453C081E090E09B8336
:1009F0008A83109224018FEF80932D0110924B0176
:100A000023C080914B01882F90E00196835D9E4F1B
:100A10002FEFFC01208380914B01882F90E00196FD
:100A200020914B01422F50E021E030E002C0220F24
:100A3000331F4A95E2F78C5D9E4FFC012083809125
:100A40004B018F5F80934B0180914B018830C8F23E
:100A500081E08093360180913601882F90E08E5E90
:100A60009E4FFC0180818093470180913601882F41
:100A700090E0855E9E4FFC018081809348018091CB
:100A80003701809324018091470180932D0106C096
:100A900086E090E09B838A8301C000008A819B816D
:100AA0008330910509F45AC08430910534F48130C3
:100AB000910579F0029771F13BC18530910509F4F8
:100AC00034C1853091050CF44EC0069709F4C5C0B9
:100AD0002FC1809146018F5F80934601909146011E
:100AE00080914801981768F0809147018E6F8E3F82
:100AF00041F080914701869580688093470110926C
:100B000046018091370180932401809147018093B1
:100B10002D010EC1809146018F5F80934601909117
:100B2000460180914801981780F0809147018F67B6
:100B30008F3759F080914701882F90E0880F991FD7
:100B40008160809347011092460180913701809324
:100B500024018091470180932D01EAC080914901D1
:100B600080932401E5C08091470180934C018091DE
:100B70003601823008F462C080913601882F90E0FF
:100B80000197835D9E4FFC01808180934D011092FF
:100B90004B0144C090914C0180914D018927882FD1
:100BA00090E081709927892BC9F480914C01817064
:100BB00080934E0180914E01882F90E020914B014F
:100BC000222F30E002C0880F991F2A95E2F7982F54
:100BD00080914A01892B80934A0111C080914B0179
:100BE000282F30E081E090E002C0880F991F2A95FD
:100BF000E2F7982F80914A01892B80934A018091D6
:100C00004C01869580934C0180914D01869580938F
:100C10004D0180914B018F5F80934B0180914B017F
:100C2000883008F4B7CF80913601882F90E020916A
:100C30004A01835D9E4FFC0120837AC080914C0164
:100C400080934A0180913601882F90E020914A01DB
:100C5000835D9E4FFC0120836BC0809146018F5FB6
:100C600080934601809146018A3008F460C08091EB
:100C70004B01883018F580914B01882F90E0019648
:100C8000835D9E4FFC01108280914B01882F90E084
:100C9000019620914B01422F50E020E830E002C045
:100CA000359527954A95E2F78C5D9E4FFC01208390
:100CB00080914B018F5F80934B0133C0809139014C
:100CC0008823C1F010924F010EC080914F01882FF0
:100CD00090E0835D9E4F2FEFFC01208380914F01B8
:100CE0008F5F80934F0180914F01893070F3109294
:100CF000390117C010924F010DC080914F01882F0C
:100D000090E0835D9E4FFC01108280914F018F5FC8
:100D100080934F0180914F01893078F381E0809377
:100D2000390185E08093460102C0000001C0000047
:100D30008A819B810F900F900F90DF91CF91089542
:100D4000CF93DF9300D0CDB7DEB79A8389838981B3
:100D50009A81009719F0019731F00AC081E090E084
:100D60009A83898305C081E090E09A83898300009B
:100D700089819A81019709F029C080915001882FBB
:100D800090E0835D9E4FFC018081809351018091B2
:100D90005001882F90E08C5D9E4FFC0180818093F4
:100DA0005201809151010E94BD02809152010E9426
:100DB000060380915001883030F4809150018F5F9C
:100DC0008093500102C010925001000089819A81E5
:100DD0000F900F90DF91CF9108950F931F93CF93B2
:100DE000DF93CDB7DEB72C970FB6F894DEBF0FBEFA
:100DF000CDBF87E290E02FEFFC01208388E290E0F6
:100E0000FC01108284E290E02FE0FC01208385E267
:100E100090E020EFFC01208381E290E02FEFFC01C5
:100E2000208382E290E0FC01108286E0EAE3F1E0B8
:100E3000DE01179601900D928A95E1F783E090E02C
:100E40009E838D831092530184E690E0A0E0B0E091
:100E50008093540190935501A0935601B09357018C
:100E60008091540190915501A0915601B091570184
:100E70008093580190935901A0935A01B0935B015C
:100E80008FE493E090935D0180935C0110925E018A
:100E900084E690E0A0E0B0E080935F019093600171
:100EA000A0936101B093620180915F019091600114
:100EB000A0916101B09162018093630190936401FC
:100EC000A0936501B093660187EB93E0909368016E
:100ED000809367011092690182E090E0A0E0B0E0A9
:100EE00080936A0190936B01A0936C01B0936D01A4
:100EF00080916A0190916B01A0916C01B0916D019C
:100F000080936E0190936F01A0937001B093710173
:100F100080EA96E090937301809372018F819885A7
:100F2000FC0181819281A381B48189839A83AB83FF
:100F3000BC8381E08093740127C080917401882F65
:100F400090E0880F991F9E012F5F3F4F820F931FE4
:100F50000696FC0180819181FC01218132814381CF
:100F6000548189819A81AB81BC81BC01CD010E94F1
:100F70007002DC01CB0189839A83AB83BC838091AF
:100F800074018F5F8093740180917401282F30E089
:100F90008D819E812817390780F289819A81AB81E2
:100FA000BC81BC01CD010E9492010E94C00110923F
:100FB0007501B0C080917501882F90E0880F991F4E
:100FC0009E012F5F3F4F820F931F0696FC01808189
:100FD0009181FC0125813681478150858091750181
:100FE000882F90E0880F991FBE016F5F7F4F860F9B
:100FF000971F0696FC0180819181FC01818192817D
:10100000A381B481281739074A075B0709F04DC04F
:1010100080917501882F90E0880F991F9E012F5FA6
:101020003F4F820F931F0696FC0100811181809132
:101030007501882F90E0880F991F9E012F5F3F4F09
:10104000820F931F0696FC0180819181FC0121850E
:10105000328580917501882F90E0880F991FAE012D
:101060004F5F5F4F840F951F0696FC018081918131
:10107000FC018081082E000C990BF9010995F801FB
:10108000808380917501882F90E0880F991F9E01C1
:101090002F5F3F4F820F931F0696FC018081918145
:1010A000FC01158216821782108680917501882FA7
:1010B00090E0880F991F9E012F5F3F4F820F931F73
:1010C0000696FC016081718180917501882F90E006
:1010D000880F991F9E012F5F3F4F820F931F069627
:1010E000FC0180819181FC012581368147815085F9
:1010F00089819A81AB81BC81820F931FA41FB51F88
:10110000FB0185839683A783B087809175018F5FEC
:101110008093750180917501282F30E08D819E812B
:101120002817390708F446CF000080914001882332
:10113000E1F3109240013BCFA1E21A2EAA1BBB1B88
:10114000FD010DC0AA1FBB1FEE1FFF1FA217B30793
:10115000E407F50720F0A21BB30BE40BF50B661FA9
:10116000771F881F991F1A9469F76095709580956D
:1011700090959B01AC01BD01CF010895EE0FFF1FBB
:101180000024001C0BBE0790F691E02D0994F89402
:02119000FFCF8F
:1011920000000002000000006901000000000100E0
:1011A2000000FFC7C7E7E7E7F7F7F700030302020C
:1011B20002010101000102040810204080FFFFFF2C
:1011C200FFFFFFFFFFFF0180FF0153015E01690185
:00000001FF
